{
  "_format": "hh-sol-artifact-1",
  "contractName": "TokenExchange",
  "sourceName": "contracts/exchange.sol",
  "abi": [
    {
      "inputs": [],
      "stateMutability": "nonpayable",
      "type": "constructor"
    },
    {
      "anonymous": false,
      "inputs": [
        {
          "indexed": true,
          "internalType": "address",
          "name": "previousOwner",
          "type": "address"
        },
        {
          "indexed": true,
          "internalType": "address",
          "name": "newOwner",
          "type": "address"
        }
      ],
      "name": "OwnershipTransferred",
      "type": "event"
    },
    {
      "inputs": [
        {
          "internalType": "uint256",
          "name": "maxExchangeRate",
          "type": "uint256"
        },
        {
          "internalType": "uint256",
          "name": "minExchangeRate",
          "type": "uint256"
        }
      ],
      "name": "addLiquidity",
      "outputs": [],
      "stateMutability": "payable",
      "type": "function"
    },
    {
      "inputs": [
        {
          "internalType": "uint256",
          "name": "amountTokens",
          "type": "uint256"
        }
      ],
      "name": "createPool",
      "outputs": [],
      "stateMutability": "payable",
      "type": "function"
    },
    {
      "inputs": [],
      "name": "ethToTokenRate",
      "outputs": [
        {
          "internalType": "uint256",
          "name": "",
          "type": "uint256"
        }
      ],
      "stateMutability": "view",
      "type": "function"
    },
    {
      "inputs": [],
      "name": "exchange_name",
      "outputs": [
        {
          "internalType": "string",
          "name": "",
          "type": "string"
        }
      ],
      "stateMutability": "view",
      "type": "function"
    },
    {
      "inputs": [
        {
          "internalType": "uint256",
          "name": "ethAmt",
          "type": "uint256"
        }
      ],
      "name": "findAmtShares",
      "outputs": [
        {
          "internalType": "uint256",
          "name": "",
          "type": "uint256"
        }
      ],
      "stateMutability": "view",
      "type": "function"
    },
    {
      "inputs": [],
      "name": "getSwapFee",
      "outputs": [
        {
          "internalType": "uint256",
          "name": "",
          "type": "uint256"
        },
        {
          "internalType": "uint256",
          "name": "",
          "type": "uint256"
        }
      ],
      "stateMutability": "view",
      "type": "function"
    },
    {
      "inputs": [],
      "name": "owner",
      "outputs": [
        {
          "internalType": "address",
          "name": "",
          "type": "address"
        }
      ],
      "stateMutability": "view",
      "type": "function"
    },
    {
      "inputs": [],
      "name": "print_lps",
      "outputs": [
        {
          "internalType": "bool",
          "name": "",
          "type": "bool"
        }
      ],
      "stateMutability": "view",
      "type": "function"
    },
    {
      "inputs": [
        {
          "internalType": "uint256",
          "name": "maxExchangeRate",
          "type": "uint256"
        },
        {
          "internalType": "uint256",
          "name": "minExchangeRate",
          "type": "uint256"
        }
      ],
      "name": "removeAllLiquidity",
      "outputs": [],
      "stateMutability": "payable",
      "type": "function"
    },
    {
      "inputs": [
        {
          "internalType": "uint256",
          "name": "amountETH",
          "type": "uint256"
        },
        {
          "internalType": "uint256",
          "name": "maxExchangeRate",
          "type": "uint256"
        },
        {
          "internalType": "uint256",
          "name": "minExchangeRate",
          "type": "uint256"
        }
      ],
      "name": "removeLiquidity",
      "outputs": [],
      "stateMutability": "payable",
      "type": "function"
    },
    {
      "inputs": [],
      "name": "renounceOwnership",
      "outputs": [],
      "stateMutability": "nonpayable",
      "type": "function"
    },
    {
      "inputs": [
        {
          "internalType": "uint256",
          "name": "maxExchangeRate",
          "type": "uint256"
        }
      ],
      "name": "swapETHForTokens",
      "outputs": [],
      "stateMutability": "payable",
      "type": "function"
    },
    {
      "inputs": [
        {
          "internalType": "uint256",
          "name": "amountTokens",
          "type": "uint256"
        },
        {
          "internalType": "uint256",
          "name": "minEthTokenExchangeRate",
          "type": "uint256"
        }
      ],
      "name": "swapTokensForETH",
      "outputs": [],
      "stateMutability": "payable",
      "type": "function"
    },
    {
      "inputs": [],
      "name": "token",
      "outputs": [
        {
          "internalType": "contract Token",
          "name": "",
          "type": "address"
        }
      ],
      "stateMutability": "view",
      "type": "function"
    },
    {
      "inputs": [
        {
          "internalType": "address",
          "name": "newOwner",
          "type": "address"
        }
      ],
      "name": "transferOwnership",
      "outputs": [],
      "stateMutability": "nonpayable",
      "type": "function"
    }
  ],
  "bytecode": "0x60806040526040518060400160405280601381526020017f486f736b53746576656e7345786368616e676500000000000000000000000000815250600190816200004a9190620004af565b50735fbdb2315678afecb367f032d93f642f64180aa3600260006101000a81548173ffffffffffffffffffffffffffffffffffffffff021916908373ffffffffffffffffffffffffffffffffffffffff160217905550600260009054906101000a900473ffffffffffffffffffffffffffffffffffffffff16600360006101000a81548173ffffffffffffffffffffffffffffffffffffffff021916908373ffffffffffffffffffffffffffffffffffffffff16021790555060006004556000600555600060065560006007556000600a556003600b556064600c55620186a0600e556305f5e100600f553480156200014257600080fd5b5062000163620001576200016960201b60201c565b6200017160201b60201c565b62000596565b600033905090565b60008060009054906101000a900473ffffffffffffffffffffffffffffffffffffffff169050816000806101000a81548173ffffffffffffffffffffffffffffffffffffffff021916908373ffffffffffffffffffffffffffffffffffffffff1602179055508173ffffffffffffffffffffffffffffffffffffffff168173ffffffffffffffffffffffffffffffffffffffff167f8be0079c531659141344cd1fd0a4f28419497f9722a3daafe3b4186f6b6457e060405160405180910390a35050565b600081519050919050565b7f4e487b7100000000000000000000000000000000000000000000000000000000600052604160045260246000fd5b7f4e487b7100000000000000000000000000000000000000000000000000000000600052602260045260246000fd5b60006002820490506001821680620002b757607f821691505b602082108103620002cd57620002cc6200026f565b5b50919050565b60008190508160005260206000209050919050565b60006020601f8301049050919050565b600082821b905092915050565b600060088302620003377fffffffffffffffffffffffffffffffffffffffffffffffffffffffffffffffff82620002f8565b620003438683620002f8565b95508019841693508086168417925050509392505050565b6000819050919050565b6000819050919050565b6000620003906200038a62000384846200035b565b62000365565b6200035b565b9050919050565b6000819050919050565b620003ac836200036f565b620003c4620003bb8262000397565b84845462000305565b825550505050565b600090565b620003db620003cc565b620003e8818484620003a1565b505050565b5b81811015620004105762000404600082620003d1565b600181019050620003ee565b5050565b601f8211156200045f576200042981620002d3565b6200043484620002e8565b8101602085101562000444578190505b6200045c6200045385620002e8565b830182620003ed565b50505b505050565b600082821c905092915050565b6000620004846000198460080262000464565b1980831691505092915050565b60006200049f838362000471565b9150826002028217905092915050565b620004ba8262000235565b67ffffffffffffffff811115620004d657620004d562000240565b5b620004e282546200029e565b620004ef82828562000414565b600060209050601f83116001811462000527576000841562000512578287015190505b6200051e858262000491565b8655506200058e565b601f1984166200053786620002d3565b60005b8281101562000561578489015182556001820191506020850194506020810190506200053a565b868310156200058157848901516200057d601f89168262000471565b8355505b6001600288020188555050505b505050505050565b61451080620005a66000396000f3fe6080604052600436106100e85760003560e01c8063a22280a61161008a578063e09adc7011610059578063e09adc701461026b578063f2fde38b14610296578063f694f7d1146102bf578063fc0c546a146102ea576100e8565b8063a22280a6146101bb578063a65540fb146101d7578063b09bbcbc14610214578063d4cadf681461023f576100e8565b80638259e6a0116100c65780638259e6a01461013c578063857620e1146101585780638da5cb5b146101745780639cd441da1461019f576100e8565b80632eab2841146100ed57806358ad6de414610109578063715018a614610125575b600080fd5b610107600480360381019061010291906130ee565b610315565b005b610123600480360381019061011e919061311b565b610738565b005b34801561013157600080fd5b5061013a610d77565b005b610156600480360381019061015191906130ee565b610d8b565b005b610172600480360381019061016d919061315b565b611144565b005b34801561018057600080fd5b50610189611917565b60405161019691906131ef565b60405180910390f35b6101b960048036038101906101b4919061311b565b611940565b005b6101d560048036038101906101d0919061311b565b6120d8565b005b3480156101e357600080fd5b506101fe60048036038101906101f991906130ee565b612661565b60405161020b9190613219565b60405180910390f35b34801561022057600080fd5b5061022961268a565b604051610236919061324f565b60405180910390f35b34801561024b57600080fd5b506102546129f8565b60405161026292919061326a565b60405180910390f35b34801561027757600080fd5b50610280612a09565b60405161028d9190613219565b60405180910390f35b3480156102a257600080fd5b506102bd60048036038101906102b891906132bf565b612a32565b005b3480156102cb57600080fd5b506102d4612ab5565b6040516102e1919061337c565b60405180910390f35b3480156102f657600080fd5b506102ff612b43565b60405161030c91906133fd565b60405180910390f35b60003411610358576040517f08c379a000000000000000000000000000000000000000000000000000000000815260040161034f9061348a565b60405180910390fd5b6000610362612a09565b905081600f548261037391906134d9565b11156103b4576040517f08c379a00000000000000000000000000000000000000000000000000000000081526004016103ab9061357f565b60405180910390fd5b60003490506000600c5482600b546103cc919061359f565b6103d69190613610565b9050600081836103e691906134d9565b6005546103f39190613641565b600d546104009190613610565b60045461040d91906134d9565b905060008111610452576040517f08c379a0000000000000000000000000000000000000000000000000000000008152600401610449906136e7565b60405180910390fd5b60065460045461046291906134d9565b81106104a3576040517f08c379a000000000000000000000000000000000000000000000000000000000815260040161049a90613779565b60405180910390fd5b6104e26040518060400160405280601081526020017f414d4f554e5420464545204554483a200000000000000000000000000000000081525083612b69565b600360009054906101000a900473ffffffffffffffffffffffffffffffffffffffff1673ffffffffffffffffffffffffffffffffffffffff1663a9059cbb33836040518363ffffffff1660e01b815260040161053f929190613799565b6020604051808303816000875af115801561055e573d6000803e3d6000fd5b505050506040513d601f19601f8201168201806040525081019061058291906137ee565b5060005b600980549050811015610665576000600982815481106105a9576105a861381b565b5b9060005260206000200160009054906101000a900473ffffffffffffffffffffffffffffffffffffffff1690506000600860008373ffffffffffffffffffffffffffffffffffffffff1673ffffffffffffffffffffffffffffffffffffffff1681526020019081526020016000209050600a5485826000015461062c919061359f565b6106369190613610565b8160010160008282546106499190613641565b925050819055505050808061065d9061384a565b915050610586565b50600360009054906101000a900473ffffffffffffffffffffffffffffffffffffffff1673ffffffffffffffffffffffffffffffffffffffff166370a08231306040518263ffffffff1660e01b81526004016106c191906131ef565b602060405180830381865afa1580156106de573d6000803e3d6000fd5b505050506040513d601f19601f8201168201806040525081019061070291906138a7565b6004819055504760058190555081600760008282546107219190613641565b9250508190555061073061268a565b505050505050565b6000610742612a09565b905082600f548261075391906134d9565b1115610794576040517f08c379a000000000000000000000000000000000000000000000000000000000815260040161078b90613946565b60405180910390fd5b81600f54826107a39190613641565b10156107e4576040517f08c379a00000000000000000000000000000000000000000000000000000000081526004016107db906139d8565b60405180910390fd5b6000600860003373ffffffffffffffffffffffffffffffffffffffff1673ffffffffffffffffffffffffffffffffffffffff16815260200190815260200160002090506000600a548260000154600e5461083e919061359f565b6108489190613610565b90506000600e5460075460055461085f91906134d9565b8361086a919061359f565b6108749190613610565b90506000600e5460065460045461088b91906134d9565b84610896919061359f565b6108a09190613610565b90506007546005546108b291906134d9565b82106108f3576040517f08c379a00000000000000000000000000000000000000000000000000000000081526004016108ea90613a6a565b60405180910390fd5b60065460045461090391906134d9565b8110610944576040517f08c379a000000000000000000000000000000000000000000000000000000000815260040161093b90613a6a565b60405180910390fd5b6109876040518060400160405280600a81526020017f45544820464545533a20000000000000000000000000000000000000000000008152508560010154612b69565b6109d76040518060400160405280600c81526020017f544f4b454e20464545533a200000000000000000000000000000000000000000815250600e5486600201546109d29190613610565b612b69565b3373ffffffffffffffffffffffffffffffffffffffff166108fc856001015484610a019190613641565b9081150290604051600060405180830381858888f19350505050158015610a2c573d6000803e3d6000fd5b50600360009054906101000a900473ffffffffffffffffffffffffffffffffffffffff1673ffffffffffffffffffffffffffffffffffffffff1663a9059cbb33600e548760020154610a7e9190613610565b84610a899190613641565b6040518363ffffffff1660e01b8152600401610aa6929190613799565b6020604051808303816000875af1158015610ac5573d6000803e3d6000fd5b505050506040513d601f19601f82011682018060405250810190610ae991906137ee565b508360000154600a6000828254610b0091906134d9565b92505081905550836001015460076000828254610b1d91906134d9565b92505081905550600e548460020154610b369190613610565b60066000828254610b4791906134d9565b9250508190555060008460000181905550600084600101819055506000846002018190555060005b600980549050811015610c0e573373ffffffffffffffffffffffffffffffffffffffff1660098281548110610ba757610ba661381b565b5b9060005260206000200160009054906101000a900473ffffffffffffffffffffffffffffffffffffffff1673ffffffffffffffffffffffffffffffffffffffff1603610bfb57610bf681612c05565b610c0e565b8080610c069061384a565b915050610b6f565b5047600581905550600360009054906101000a900473ffffffffffffffffffffffffffffffffffffffff1673ffffffffffffffffffffffffffffffffffffffff166370a08231306040518263ffffffff1660e01b8152600401610c7191906131ef565b602060405180830381865afa158015610c8e573d6000803e3d6000fd5b505050506040513d601f19601f82011682018060405250810190610cb291906138a7565b600481905550600360009054906101000a900473ffffffffffffffffffffffffffffffffffffffff1673ffffffffffffffffffffffffffffffffffffffff166370a08231306040518263ffffffff1660e01b8152600401610d1391906131ef565b602060405180830381865afa158015610d30573d6000803e3d6000fd5b505050506040513d601f19601f82011682018060405250810190610d5491906138a7565b47610d5f919061359f565b600d81905550610d6d61268a565b5050505050505050565b610d7f612d42565b610d896000612dc0565b565b610d93612d42565b600060045414610dd8576040517f08c379a0000000000000000000000000000000000000000000000000000000008152600401610dcf90613ad6565b60405180910390fd5b600060055414610e1d576040517f08c379a0000000000000000000000000000000000000000000000000000000008152600401610e1490613b42565b60405180910390fd5b60003411610e60576040517f08c379a0000000000000000000000000000000000000000000000000000000008152600401610e5790613bae565b60405180910390fd5b6000600360009054906101000a900473ffffffffffffffffffffffffffffffffffffffff1673ffffffffffffffffffffffffffffffffffffffff166370a08231336040518263ffffffff1660e01b8152600401610ebd91906131ef565b602060405180830381865afa158015610eda573d6000803e3d6000fd5b505050506040513d601f19601f82011682018060405250810190610efe91906138a7565b905080821115610f43576040517f08c379a0000000000000000000000000000000000000000000000000000000008152600401610f3a90613c40565b60405180910390fd5b60008211610f86576040517f08c379a0000000000000000000000000000000000000000000000000000000008152600401610f7d90613cac565b60405180910390fd5b600360009054906101000a900473ffffffffffffffffffffffffffffffffffffffff1673ffffffffffffffffffffffffffffffffffffffff166323b872dd3330856040518463ffffffff1660e01b8152600401610fe593929190613ccc565b6020604051808303816000875af1158015611004573d6000803e3d6000fd5b505050506040513d601f19601f8201168201806040525081019061102891906137ee565b50600360009054906101000a900473ffffffffffffffffffffffffffffffffffffffff1673ffffffffffffffffffffffffffffffffffffffff166370a08231306040518263ffffffff1660e01b815260040161108491906131ef565b602060405180830381865afa1580156110a1573d6000803e3d6000fd5b505050506040513d601f19601f820116820180604052508101906110c591906138a7565b600481905550346005819055506005546004546110e2919061359f565b600d81905550620186a0600a819055506000600860003373ffffffffffffffffffffffffffffffffffffffff1673ffffffffffffffffffffffffffffffffffffffff168152602001908152602001600020905060648160000181905550505050565b60008311611187576040517f08c379a000000000000000000000000000000000000000000000000000000000815260040161117e90613d4f565b60405180910390fd5b60055483106111cb576040517f08c379a00000000000000000000000000000000000000000000000000000000081526004016111c290613de1565b60405180910390fd5b6000600554846006546004546111e191906134d9565b6111eb919061359f565b6111f59190613610565b905060065460045461120791906134d9565b8110611248576040517f08c379a000000000000000000000000000000000000000000000000000000000815260040161123f90613e73565b60405180910390fd5b6000611252612a09565b905083600f548261126391906134d9565b11156112a4576040517f08c379a000000000000000000000000000000000000000000000000000000000815260040161129b90613946565b60405180910390fd5b82600f54826112b39190613641565b10156112f4576040517f08c379a00000000000000000000000000000000000000000000000000000000081526004016112eb906139d8565b60405180910390fd5b6000600860003373ffffffffffffffffffffffffffffffffffffffff1673ffffffffffffffffffffffffffffffffffffffff16815260200190815260200160002090506000600a54600e54836000015461134e919061359f565b6113589190613610565b90506000600554600e548961136d919061359f565b6113779190613610565b9050808210156113bc576040517f08c379a00000000000000000000000000000000000000000000000000000000081526004016113b390613edf565b60405180910390fd5b60006113c789612661565b90508360000154811115611410576040517f08c379a000000000000000000000000000000000000000000000000000000000815260040161140790613f71565b60405180910390fd5b60008460000154856001015483611427919061359f565b6114319190613610565b905060008560000154600e54876002015461144c9190613610565b84611457919061359f565b6114619190613610565b90506114a26040518060400160405280601181526020017f52454d4f56494e47205348415245533a2000000000000000000000000000000081525084612b69565b6114e16040518060400160405280600d81526020017f45544820524557415244533a200000000000000000000000000000000000000081525083612b69565b6115206040518060400160405280600f81526020017f544f4b454e20524557415244533a20000000000000000000000000000000000081525082612b69565b3373ffffffffffffffffffffffffffffffffffffffff166108fc838d6115469190613641565b9081150290604051600060405180830381858888f19350505050158015611571573d6000803e3d6000fd5b50600360009054906101000a900473ffffffffffffffffffffffffffffffffffffffff1673ffffffffffffffffffffffffffffffffffffffff1663a9059cbb33838b6115bd9190613641565b6040518363ffffffff1660e01b81526004016115da929190613799565b6020604051808303816000875af11580156115f9573d6000803e3d6000fd5b505050506040513d601f19601f8201168201806040525081019061161d91906137ee565b508560000154866002015484611633919061359f565b61163d9190613610565b86600201600082825461165091906134d9565b925050819055508286600001600082825461166b91906134d9565b925050819055508186600101600082825461168691906134d9565b9250508190555082600a600082825461169f91906134d9565b9250508190555081600760008282546116b891906134d9565b9250508190555080600660008282546116d191906134d9565b9250508190555060008060008860000154036116ec57600191505b60005b600980549050811015611784573373ffffffffffffffffffffffffffffffffffffffff16600982815481106117275761172661381b565b5b9060005260206000200160009054906101000a900473ffffffffffffffffffffffffffffffffffffffff1673ffffffffffffffffffffffffffffffffffffffff1603611771578091505b808061177c9061384a565b9150506116ef565b5081156117a95760008860010181905550600088600201819055506117a881612c05565b5b47600581905550600360009054906101000a900473ffffffffffffffffffffffffffffffffffffffff1673ffffffffffffffffffffffffffffffffffffffff166370a08231306040518263ffffffff1660e01b815260040161180b91906131ef565b602060405180830381865afa158015611828573d6000803e3d6000fd5b505050506040513d601f19601f8201168201806040525081019061184c91906138a7565b600481905550600360009054906101000a900473ffffffffffffffffffffffffffffffffffffffff1673ffffffffffffffffffffffffffffffffffffffff166370a08231306040518263ffffffff1660e01b81526004016118ad91906131ef565b602060405180830381865afa1580156118ca573d6000803e3d6000fd5b505050506040513d601f19601f820116820180604052508101906118ee91906138a7565b476118f9919061359f565b600d8190555061190761268a565b5050505050505050505050505050565b60008060009054906101000a900473ffffffffffffffffffffffffffffffffffffffff16905090565b60003411611983576040517f08c379a000000000000000000000000000000000000000000000000000000000815260040161197a90613d4f565b60405180910390fd5b600060055460045434611996919061359f565b6119a09190613610565b905080600360009054906101000a900473ffffffffffffffffffffffffffffffffffffffff1673ffffffffffffffffffffffffffffffffffffffff166370a08231336040518263ffffffff1660e01b81526004016119fe91906131ef565b602060405180830381865afa158015611a1b573d6000803e3d6000fd5b505050506040513d601f19601f82011682018060405250810190611a3f91906138a7565b1015611a80576040517f08c379a0000000000000000000000000000000000000000000000000000000008152600401611a7790614003565b60405180910390fd5b6000611a8a612a09565b905083600f5482611a9b91906134d9565b1115611adc576040517f08c379a0000000000000000000000000000000000000000000000000000000008152600401611ad390613946565b60405180910390fd5b82600f5482611aeb9190613641565b1015611b2c576040517f08c379a0000000000000000000000000000000000000000000000000000000008152600401611b23906139d8565b60405180910390fd5b611b6b6040518060400160405280601281526020017f414444494e47204c49515549444954593a20000000000000000000000000000081525033612e84565b611baa6040518060400160405280600c81526020017f45544820414444494e473a20000000000000000000000000000000000000000081525034612b69565b611be96040518060400160405280600e81526020017f544f4b454e5320414444494e473a00000000000000000000000000000000000081525083612b69565b600360009054906101000a900473ffffffffffffffffffffffffffffffffffffffff1673ffffffffffffffffffffffffffffffffffffffff166323b872dd3330856040518463ffffffff1660e01b8152600401611c4893929190613ccc565b6020604051808303816000875af1158015611c67573d6000803e3d6000fd5b505050506040513d601f19601f82011682018060405250810190611c8b91906137ee565b50611ccb6040518060400160405280600e81526020017f434f4e5452414354204554483a2000000000000000000000000000000000000081525047612b69565b611da56040518060400160405280601181526020017f434f4e545241435420544f4b454e533a20000000000000000000000000000000815250600360009054906101000a900473ffffffffffffffffffffffffffffffffffffffff1673ffffffffffffffffffffffffffffffffffffffff166370a08231306040518263ffffffff1660e01b8152600401611d5f91906131ef565b602060405180830381865afa158015611d7c573d6000803e3d6000fd5b505050506040513d601f19601f82011682018060405250810190611da091906138a7565b612b69565b6000600860003373ffffffffffffffffffffffffffffffffffffffff1673ffffffffffffffffffffffffffffffffffffffff16815260200190815260200160002090506000611df334612661565b905080600a6000828254611e079190613641565b9250508190555080826000016000828254611e229190613641565b92505081905550611e686040518060400160405280600e81526020017f5348415245532041444445443a2000000000000000000000000000000000000081525082612b69565b47600581905550600360009054906101000a900473ffffffffffffffffffffffffffffffffffffffff1673ffffffffffffffffffffffffffffffffffffffff166370a08231306040518263ffffffff1660e01b8152600401611eca91906131ef565b602060405180830381865afa158015611ee7573d6000803e3d6000fd5b505050506040513d601f19601f82011682018060405250810190611f0b91906138a7565b600481905550600360009054906101000a900473ffffffffffffffffffffffffffffffffffffffff1673ffffffffffffffffffffffffffffffffffffffff166370a08231306040518263ffffffff1660e01b8152600401611f6c91906131ef565b602060405180830381865afa158015611f89573d6000803e3d6000fd5b505050506040513d601f19601f82011682018060405250810190611fad91906138a7565b47611fb8919061359f565b600d819055506000805b60098054905081101561205c573373ffffffffffffffffffffffffffffffffffffffff1660098281548110611ffa57611ff961381b565b5b9060005260206000200160009054906101000a900473ffffffffffffffffffffffffffffffffffffffff1673ffffffffffffffffffffffffffffffffffffffff1603612049576001915061205c565b80806120549061384a565b915050611fc2565b50806120c6576009339080600181540180825580915050600190039060005260206000200160009091909190916101000a81548173ffffffffffffffffffffffffffffffffffffffff021916908373ffffffffffffffffffffffffffffffffffffffff1602179055505b6120ce61268a565b5050505050505050565b6000821161211b576040517f08c379a000000000000000000000000000000000000000000000000000000000815260040161211290614095565b60405180910390fd5b600360009054906101000a900473ffffffffffffffffffffffffffffffffffffffff1673ffffffffffffffffffffffffffffffffffffffff166370a08231336040518263ffffffff1660e01b815260040161217691906131ef565b602060405180830381865afa158015612193573d6000803e3d6000fd5b505050506040513d601f19601f820116820180604052508101906121b791906138a7565b8211156121f9576040517f08c379a00000000000000000000000000000000000000000000000000000000081526004016121f090614127565b60405180910390fd5b6000612203612a09565b905081600f54826122149190613641565b1015612255576040517f08c379a000000000000000000000000000000000000000000000000000000000815260040161224c9061357f565b60405180910390fd5b6000600c5484600b54612268919061359f565b6122729190613610565b90506000818561228291906134d9565b60045461228f9190613641565b600d5461229c9190613610565b6005546122a991906134d9565b90506007546005546122bb91906134d9565b81106122fc576040517f08c379a00000000000000000000000000000000000000000000000000000000081526004016122f3906141b9565b60405180910390fd5b61233b6040518060400160405280601381526020017f414d4f554e542046454520544f4b454e533a200000000000000000000000000081525082612b69565b600360009054906101000a900473ffffffffffffffffffffffffffffffffffffffff1673ffffffffffffffffffffffffffffffffffffffff166323b872dd3330886040518463ffffffff1660e01b815260040161239a93929190613ccc565b6020604051808303816000875af11580156123b9573d6000803e3d6000fd5b505050506040513d601f19601f820116820180604052508101906123dd91906137ee565b503373ffffffffffffffffffffffffffffffffffffffff166108fc829081150290604051600060405180830381858888f19350505050158015612424573d6000803e3d6000fd5b5060005b60098054905081101561258e5760006009828154811061244b5761244a61381b565b5b9060005260206000200160009054906101000a900473ffffffffffffffffffffffffffffffffffffffff1690506000600860008373ffffffffffffffffffffffffffffffffffffffff1673ffffffffffffffffffffffffffffffffffffffff1681526020019081526020016000209050600a54600e548683600001546124d1919061359f565b6124db919061359f565b6124e59190613610565b8160020160008282546124f89190613641565b925050819055506125796040518060400160405280601781526020017f4163637275656420746f6b656e206665657320666f7220000000000000000000815250836040518060400160405280600281526020017f3a200000000000000000000000000000000000000000000000000000000000008152508460020154612f20565b505080806125869061384a565b915050612428565b50600360009054906101000a900473ffffffffffffffffffffffffffffffffffffffff1673ffffffffffffffffffffffffffffffffffffffff166370a08231306040518263ffffffff1660e01b81526004016125ea91906131ef565b602060405180830381865afa158015612607573d6000803e3d6000fd5b505050506040513d601f19601f8201168201806040525081019061262b91906138a7565b60048190555047600581905550816006600082825461264a9190613641565b9250508190555061265961268a565b505050505050565b600080600554600a5484612675919061359f565b61267f9190613610565b905080915050919050565b60006126a460405180602001604052806000815250612fc2565b6126e26040518060400160405280600381526020017f4c50530000000000000000000000000000000000000000000000000000000000815250612fc2565b6126fa60405180602001604052806000815250612fc2565b61273b6040518060400160405280601081526020017f746f74616c2065746820666565733a2000000000000000000000000000000000815250600754612b69565b61277c6040518060400160405280601281526020017f746f74616c20746f6b656e20666565733a200000000000000000000000000000815250600654612b69565b60005b60098054905081101561297f576127a460405180602001604052806000815250612fc2565b600060086000600984815481106127be576127bd61381b565b5b9060005260206000200160009054906101000a900473ffffffffffffffffffffffffffffffffffffffff1673ffffffffffffffffffffffffffffffffffffffff1673ffffffffffffffffffffffffffffffffffffffff16815260200190815260200160002090506128a26040518060400160405280600d81526020017f6c705f70726f76696465723a2000000000000000000000000000000000000000815250600984815481106128725761287161381b565b5b9060005260206000200160009054906101000a900473ffffffffffffffffffffffffffffffffffffffff16612e84565b6128e56040518060400160405280600881526020017f7368617265733a200000000000000000000000000000000000000000000000008152508260000154612b69565b6129286040518060400160405280600a81526020017f6574685f666565733a20000000000000000000000000000000000000000000008152508260010154612b69565b61296b6040518060400160405280601681526020017f746f6b656e5f666565732028746f2031305e35293a20000000000000000000008152508260020154612b69565b5080806129779061384a565b91505061277f565b5061299860405180602001604052806000815250612fc2565b6129d96040518060400160405280600e81526020017f746f74616c207368617265733a20000000000000000000000000000000000000815250600a54612b69565b6129f160405180602001604052806000815250612fc2565b6001905090565b600080600b54600c54915091509091565b600080600454600e54600554612a1f919061359f565b612a299190613610565b90508091505090565b612a3a612d42565b600073ffffffffffffffffffffffffffffffffffffffff168173ffffffffffffffffffffffffffffffffffffffff1603612aa9576040517f08c379a0000000000000000000000000000000000000000000000000000000008152600401612aa09061424b565b60405180910390fd5b612ab281612dc0565b50565b60018054612ac29061429a565b80601f0160208091040260200160405190810160405280929190818152602001828054612aee9061429a565b8015612b3b5780601f10612b1057610100808354040283529160200191612b3b565b820191906000526020600020905b815481529060010190602001808311612b1e57829003601f168201915b505050505081565b600360009054906101000a900473ffffffffffffffffffffffffffffffffffffffff1681565b612c018282604051602401612b7f9291906142cb565b6040516020818303038152906040527fb60e72cc000000000000000000000000000000000000000000000000000000007bffffffffffffffffffffffffffffffffffffffffffffffffffffffff19166020820180517bffffffffffffffffffffffffffffffffffffffffffffffffffffffff838183161783525050505061305b565b5050565b6009805490508110612c4c576040517f08c379a0000000000000000000000000000000000000000000000000000000008152600401612c439061436d565b60405180910390fd5b60096001600980549050612c6091906134d9565b81548110612c7157612c7061381b565b5b9060005260206000200160009054906101000a900473ffffffffffffffffffffffffffffffffffffffff1660098281548110612cb057612caf61381b565b5b9060005260206000200160006101000a81548173ffffffffffffffffffffffffffffffffffffffff021916908373ffffffffffffffffffffffffffffffffffffffff1602179055506009805480612d0a57612d0961438d565b5b6001900381819060005260206000200160006101000a81549073ffffffffffffffffffffffffffffffffffffffff0219169055905550565b612d4a613075565b73ffffffffffffffffffffffffffffffffffffffff16612d68611917565b73ffffffffffffffffffffffffffffffffffffffff1614612dbe576040517f08c379a0000000000000000000000000000000000000000000000000000000008152600401612db590614408565b60405180910390fd5b565b60008060009054906101000a900473ffffffffffffffffffffffffffffffffffffffff169050816000806101000a81548173ffffffffffffffffffffffffffffffffffffffff021916908373ffffffffffffffffffffffffffffffffffffffff1602179055508173ffffffffffffffffffffffffffffffffffffffff168173ffffffffffffffffffffffffffffffffffffffff167f8be0079c531659141344cd1fd0a4f28419497f9722a3daafe3b4186f6b6457e060405160405180910390a35050565b612f1c8282604051602401612e9a929190614428565b6040516020818303038152906040527f319af333000000000000000000000000000000000000000000000000000000007bffffffffffffffffffffffffffffffffffffffffffffffffffffffff19166020820180517bffffffffffffffffffffffffffffffffffffffffffffffffffffffff838183161783525050505061305b565b5050565b612fbc84848484604051602401612f3a9493929190614458565b6040516020818303038152906040527f91d1112e000000000000000000000000000000000000000000000000000000007bffffffffffffffffffffffffffffffffffffffffffffffffffffffff19166020820180517bffffffffffffffffffffffffffffffffffffffffffffffffffffffff838183161783525050505061305b565b50505050565b61305881604051602401612fd6919061337c565b6040516020818303038152906040527f41304fac000000000000000000000000000000000000000000000000000000007bffffffffffffffffffffffffffffffffffffffffffffffffffffffff19166020820180517bffffffffffffffffffffffffffffffffffffffffffffffffffffffff838183161783525050505061305b565b50565b6130728161306a61307d61309e565b63ffffffff16565b50565b600033905090565b60006a636f6e736f6c652e6c6f679050600080835160208501845afa505050565b6130a9819050919050565b6130b16144ab565b565b600080fd5b6000819050919050565b6130cb816130b8565b81146130d657600080fd5b50565b6000813590506130e8816130c2565b92915050565b600060208284031215613104576131036130b3565b5b6000613112848285016130d9565b91505092915050565b60008060408385031215613132576131316130b3565b5b6000613140858286016130d9565b9250506020613151858286016130d9565b9150509250929050565b600080600060608486031215613174576131736130b3565b5b6000613182868287016130d9565b9350506020613193868287016130d9565b92505060406131a4868287016130d9565b9150509250925092565b600073ffffffffffffffffffffffffffffffffffffffff82169050919050565b60006131d9826131ae565b9050919050565b6131e9816131ce565b82525050565b600060208201905061320460008301846131e0565b92915050565b613213816130b8565b82525050565b600060208201905061322e600083018461320a565b92915050565b60008115159050919050565b61324981613234565b82525050565b60006020820190506132646000830184613240565b92915050565b600060408201905061327f600083018561320a565b61328c602083018461320a565b9392505050565b61329c816131ce565b81146132a757600080fd5b50565b6000813590506132b981613293565b92915050565b6000602082840312156132d5576132d46130b3565b5b60006132e3848285016132aa565b91505092915050565b600081519050919050565b600082825260208201905092915050565b60005b8381101561332657808201518184015260208101905061330b565b60008484015250505050565b6000601f19601f8301169050919050565b600061334e826132ec565b61335881856132f7565b9350613368818560208601613308565b61337181613332565b840191505092915050565b600060208201905081810360008301526133968184613343565b905092915050565b6000819050919050565b60006133c36133be6133b9846131ae565b61339e565b6131ae565b9050919050565b60006133d5826133a8565b9050919050565b60006133e7826133ca565b9050919050565b6133f7816133dc565b82525050565b600060208201905061341260008301846133ee565b92915050565b7f43616e6e6f7420737761702061206e6567617469766520616d6f756e74206f6660008201527f2045544800000000000000000000000000000000000000000000000000000000602082015250565b60006134746024836132f7565b915061347f82613418565b604082019050919050565b600060208201905081810360008301526134a381613467565b9050919050565b7f4e487b7100000000000000000000000000000000000000000000000000000000600052601160045260246000fd5b60006134e4826130b8565b91506134ef836130b8565b9250828203905081811115613507576135066134aa565b5b92915050565b7f43757272656e74207261746520686173206d6f7665642061626f7665206d617860008201527f45786368616e6765526174650000000000000000000000000000000000000000602082015250565b6000613569602c836132f7565b91506135748261350d565b604082019050919050565b600060208201905081810360008301526135988161355c565b9050919050565b60006135aa826130b8565b91506135b5836130b8565b92508282026135c3816130b8565b915082820484148315176135da576135d96134aa565b5b5092915050565b7f4e487b7100000000000000000000000000000000000000000000000000000000600052601260045260246000fd5b600061361b826130b8565b9150613626836130b8565b925082613636576136356135e1565b5b828204905092915050565b600061364c826130b8565b9150613657836130b8565b925082820190508082111561366f5761366e6134aa565b5b92915050565b7f43616e6e6f742067697665206261636b2061206e6567617469766520746f6b6560008201527f6e206e756d626572000000000000000000000000000000000000000000000000602082015250565b60006136d16028836132f7565b91506136dc82613675565b604082019050919050565b60006020820190508181036000830152613700816136c4565b9050919050565b7f4e6f7420656e6f75676820746f6b656e7320696e207265736572766520746f2060008201527f6d616b6520737761700000000000000000000000000000000000000000000000602082015250565b60006137636029836132f7565b915061376e82613707565b604082019050919050565b6000602082019050818103600083015261379281613756565b9050919050565b60006040820190506137ae60008301856131e0565b6137bb602083018461320a565b9392505050565b6137cb81613234565b81146137d657600080fd5b50565b6000815190506137e8816137c2565b92915050565b600060208284031215613804576138036130b3565b5b6000613812848285016137d9565b91505092915050565b7f4e487b7100000000000000000000000000000000000000000000000000000000600052603260045260246000fd5b6000613855826130b8565b91507fffffffffffffffffffffffffffffffffffffffffffffffffffffffffffffffff8203613887576138866134aa565b5b600182019050919050565b6000815190506138a1816130c2565b92915050565b6000602082840312156138bd576138bc6130b3565b5b60006138cb84828501613892565b91505092915050565b7f43757272656e7420726174652061626f7665206d617845786368616e6765526160008201527f7465000000000000000000000000000000000000000000000000000000000000602082015250565b60006139306022836132f7565b915061393b826138d4565b604082019050919050565b6000602082019050818103600083015261395f81613923565b9050919050565b7f43757272656e7420726174652062656c6f77206d696e45786368616e6765526160008201527f7465000000000000000000000000000000000000000000000000000000000000602082015250565b60006139c26022836132f7565b91506139cd82613966565b604082019050919050565b600060208201905081810360008301526139f1816139b5565b9050919050565b7f576974686472617720776f756c64206465706c6574652065746820726573657260008201527f76657320746f2030000000000000000000000000000000000000000000000000602082015250565b6000613a546028836132f7565b9150613a5f826139f8565b604082019050919050565b60006020820190508181036000830152613a8381613a47565b9050919050565b7f546f6b656e20726573657276657320776173206e6f7420300000000000000000600082015250565b6000613ac06018836132f7565b9150613acb82613a8a565b602082019050919050565b60006020820190508181036000830152613aef81613ab3565b9050919050565b7f45544820726573657276657320776173206e6f7420302e000000000000000000600082015250565b6000613b2c6017836132f7565b9150613b3782613af6565b602082019050919050565b60006020820190508181036000830152613b5b81613b1f565b9050919050565b7f4e6565642065746820746f2063726561746520706f6f6c2e0000000000000000600082015250565b6000613b986018836132f7565b9150613ba382613b62565b602082019050919050565b60006020820190508181036000830152613bc781613b8b565b9050919050565b7f4e6f74206861766520656e6f75676820746f6b656e7320746f2063726561746560008201527f2074686520706f6f6c0000000000000000000000000000000000000000000000602082015250565b6000613c2a6029836132f7565b9150613c3582613bce565b604082019050919050565b60006020820190508181036000830152613c5981613c1d565b9050919050565b7f4e65656420746f6b656e7320746f2063726561746520706f6f6c2e0000000000600082015250565b6000613c96601b836132f7565b9150613ca182613c60565b602082019050919050565b60006020820190508181036000830152613cc581613c89565b9050919050565b6000606082019050613ce160008301866131e0565b613cee60208301856131e0565b613cfb604083018461320a565b949350505050565b7f5a65726f206f72204e6567617469766520455448000000000000000000000000600082015250565b6000613d396014836132f7565b9150613d4482613d03565b602082019050919050565b60006020820190508181036000830152613d6881613d2c565b9050919050565b7f5769746864726177616c20776f756c64206465706c657465204554482072657360008201527f6572766573000000000000000000000000000000000000000000000000000000602082015250565b6000613dcb6025836132f7565b9150613dd682613d6f565b604082019050919050565b60006020820190508181036000830152613dfa81613dbe565b9050919050565b7f5769746864726177616c20776f756c64206465706c65746520746f6b656e207260008201527f6573657276657300000000000000000000000000000000000000000000000000602082015250565b6000613e5d6027836132f7565b9150613e6882613e01565b604082019050919050565b60006020820190508181036000830152613e8c81613e50565b9050919050565b7f4c502068617320696e73756666696369656e74206c6971756964697479000000600082015250565b6000613ec9601d836132f7565b9150613ed482613e93565b602082019050919050565b60006020820190508181036000830152613ef881613ebc565b9050919050565b7f43616e6e6f742072656d6f7665206d6f726520736861726573207468616e207960008201527f6f75206861766500000000000000000000000000000000000000000000000000602082015250565b6000613f5b6027836132f7565b9150613f6682613eff565b604082019050919050565b60006020820190508181036000830152613f8a81613f4e565b9050919050565b7f496e73756666696369656e7420746f6b656e2062616c616e636520666f72206c60008201527f6971756964697479000000000000000000000000000000000000000000000000602082015250565b6000613fed6028836132f7565b9150613ff882613f91565b604082019050919050565b6000602082019050818103600083015261401c81613fe0565b9050919050565b7f43616e6e6f7420737761702061206e6567617469766520616d6f756e74206f6660008201527f20746f6b656e7300000000000000000000000000000000000000000000000000602082015250565b600061407f6027836132f7565b915061408a82614023565b604082019050919050565b600060208201905081810360008301526140ae81614072565b9050919050565b7f4e6f7420656e6f75676820746f6b656e7320746f206d616b652074686973207360008201527f7761700000000000000000000000000000000000000000000000000000000000602082015250565b60006141116023836132f7565b915061411c826140b5565b604082019050919050565b6000602082019050818103600083015261414081614104565b9050919050565b7f496e73756666696369656e74207265736572766573206f662045544820666f7260008201527f20746865207472616e73616374696f6e00000000000000000000000000000000602082015250565b60006141a36030836132f7565b91506141ae82614147565b604082019050919050565b600060208201905081810360008301526141d281614196565b9050919050565b7f4f776e61626c653a206e6577206f776e657220697320746865207a65726f206160008201527f6464726573730000000000000000000000000000000000000000000000000000602082015250565b60006142356026836132f7565b9150614240826141d9565b604082019050919050565b6000602082019050818103600083015261426481614228565b9050919050565b7f4e487b7100000000000000000000000000000000000000000000000000000000600052602260045260246000fd5b600060028204905060018216806142b257607f821691505b6020821081036142c5576142c461426b565b5b50919050565b600060408201905081810360008301526142e58185613343565b90506142f4602083018461320a565b9392505050565b7f73706563696669656420696e646578206973206c6172676572207468616e207460008201527f6865206e756d626572206f66206c707300000000000000000000000000000000602082015250565b60006143576030836132f7565b9150614362826142fb565b604082019050919050565b600060208201905081810360008301526143868161434a565b9050919050565b7f4e487b7100000000000000000000000000000000000000000000000000000000600052603160045260246000fd5b7f4f776e61626c653a2063616c6c6572206973206e6f7420746865206f776e6572600082015250565b60006143f26020836132f7565b91506143fd826143bc565b602082019050919050565b60006020820190508181036000830152614421816143e5565b9050919050565b600060408201905081810360008301526144428185613343565b905061445160208301846131e0565b9392505050565b600060808201905081810360008301526144728187613343565b905061448160208301866131e0565b81810360408301526144938185613343565b90506144a2606083018461320a565b95945050505050565b7f4e487b7100000000000000000000000000000000000000000000000000000000600052605160045260246000fdfea264697066735822122003eb2f79031e9dd52cc47fe6a4eb4e9984476c77de8cd6629038ee399433cdcd64736f6c63430008110033",
  "linkReferences": {},
  "deployedLinkReferences": {}
}